:020000040000FA
:100000000C9434000C943E000C943E000C943E0082
:100010000C943E000C943E000C943E000C943E0068
:100020000C943E000C943E000C943E000C943E0058
:100030000C943E000C943E000C943E000C943E0048
:100040000C943E000C943E000C943E000C943E0038
:100050000C943E000C943E000C943E000C943E0028
:100060000C943E000C943E0011241FBECFEFD8E04C
:10007000DEBFCDBF0E9440000C9427010C9400000D
:10008000529A5398549A559A56985E9A5798219A2C
:10009000209811D078944E9B4C9A4B991BD04B9B37
:1000A00039D0C2D0AAE0A093C600BED0ADE0A093E4
:1000B000C600B1D0F0CF88278093C0008093C500E0
:1000C00087E68093C40088E18093C10086E0809336
:1000D000C20008954F9911F007D008955D985A987D
:1000E000EEE3F1E01DD00895299AA3D029986FD0AE
:1000F00085D0B13018F4B03039F008955D9A5A9A2D
:10010000E8E5F1E00DD008955D9A5A98E6E9F1E04E
:1001100007D008955D985A98E0E3F1E001D0089582
:10012000D591D03021F080D0D093C600F9CF08957A
:100130004D6573696E204D6174692E2E2E005369D2
:10014000616E6720686172692C206C616D7075202A
:100150006D6174692E2E2E004D616C616D20686199
:1001600072692C20746964616B20616461206D6F19
:1001700062696C20646920646570616E2C206C611A
:100180006D7075206D656E79616C6120746572614A
:100190006E672E2E2E004D616C616D206861726954
:1001A0002C20616461206D6F62696C206469206439
:1001B0006570616E2C206C616D7075206D656E7957
:1001C000616C612072656475702E2E2E2E0040E0E9
:1001D0004093800045EC4093810056B355FFFDCF1E
:1001E0000091860056BB45E84093810056B355FF09
:1001F000FDCFC0918600C01B56BB0895AA27BB2720
:10020000C4361AF0A395C456FBCFCA301AF0B39582
:10021000CA50FBCF089591E084EFFFE0E0EA319708
:10022000F1F70197D1F708951091C00015FFFCCFA9
:100230000895442746BD44E147BD4AE045BD45B366
:1002400041FFFDCF442745BD42E045BB0895F894EA
:02025000FFCFDE
:107E0000112484B714BE81FFF0D085E080938100F7
:107E100082E08093C00088E18093C10086E0809377
:107E2000C20080E18093C4008EE0C9D0259A86E02C
:107E300020E33CEF91E0309385002093840096BBD3
:107E4000B09BFECF1D9AA8958150A9F7CC24DD24C4
:107E500088248394B5E0AB2EA1E19A2EF3E0BF2EE7
:107E6000A2D0813461F49FD0082FAFD0023811F036
:107E7000013811F484E001C083E08DD089C08234E0
:107E800011F484E103C0853419F485E0A6D080C0E4
:107E9000853579F488D0E82EFF2485D0082F10E0AE
:107EA000102F00270E291F29000F111F8ED06801E7
:107EB0006FC0863521F484E090D080E0DECF843638
:107EC00009F040C070D06FD0082F6DD080E0C81688
:107ED00080E7D80618F4F601B7BEE895C0E0D1E017
:107EE00062D089930C17E1F7F0E0CF16F0E7DF06D8
:107EF00018F0F601B7BEE89568D007B600FCFDCFD4
:107F0000A601A0E0B1E02C9130E011968C91119780
:107F100090E0982F8827822B932B1296FA010C0160
:107F200087BEE89511244E5F5F4FF1E0A038BF0790
:107F300051F7F601A7BEE89507B600FCFDCF97BE46
:107F4000E89526C08437B1F42ED02DD0F82E2BD052
:107F50003CD0F601EF2C8F010F5F1F4F84911BD097
:107F6000EA94F801C1F70894C11CD11CFA94CF0C13
:107F7000D11C0EC0853739F428D08EE10CD085E9AC
:107F80000AD08FE07ACF813511F488E018D01DD067
:107F900080E101D065CF982F8091C00085FFFCCF94
:107FA0009093C60008958091C00087FFFCCF809118
:107FB000C00084FD01C0A8958091C6000895E0E648
:107FC000F0E098E1908380830895EDDF803219F02E
:107FD00088E0F5DFFFCF84E1DECF1F93182FE3DFCA
:107FE0001150E9F7F2DF1F91089580E0E8DFEE27F6
:047FF000FF270994CA
:027FFE00040479
:00000001FF
