:100000000C9434000C943E000C943E000C943E0082
:100010000C943E000C943E000C943E000C943E0068
:100020000C943E000C943E000C943E000C943E0058
:100030000C943E000C943E000C943E000C943E0048
:100040000C943E000C943E000C943E000C943E0038
:100050000C943E000C943E000C943E000C943E0028
:100060000C943E000C943E0011241FBECFEFD8E04C
:10007000DEBFCDBF0E9440000C9427010C9400000D
:10008000529A5398549A559A56985E9A5798219A2C
:10009000209811D078944E9B4C9A4B991BD04B9B37
:1000A00039D0C2D0AAE0A093C600BED0ADE0A093E4
:1000B000C600B1D0F0CF88278093C0008093C500E0
:1000C00087E68093C40088E18093C10086E0809336
:1000D000C20008954F9911F007D008955D985A987D
:1000E000EEE3F1E01DD00895299AA3D029986FD0AE
:1000F00085D0B13018F4B03039F008955D9A5A9A2D
:10010000E8E5F1E00DD008955D9A5A98E6E9F1E04E
:1001100007D008955D985A98E0E3F1E001D0089582
:10012000D591D03021F080D0D093C600F9CF08957A
:100130004D6573696E204D6174692E2E2E005369D2
:10014000616E6720686172692C206C616D7075202A
:100150006D6174692E2E2E004D616C616D20686199
:1001600072692C20746964616B20616461206D6F19
:1001700062696C20646920646570616E2C206C611A
:100180006D7075206D656E79616C6120746572614A
:100190006E672E2E2E004D616C616D206861726954
:1001A0002C20616461206D6F62696C206469206439
:1001B0006570616E2C206C616D7075206D656E7957
:1001C000616C612072656475702E2E2E2E0040E0E9
:1001D0004093800045EC4093810056B355FFFDCF1E
:1001E0000091860056BB45E84093810056B355FF09
:1001F000FDCFC0918600C01B56BB0895AA27BB2720
:10020000C4361AF0A395C456FBCFCA301AF0B39582
:10021000CA50FBCF089591E084EFFFE0E0EA319708
:10022000F1F70197D1F708951091C00015FFFCCFA9
:100230000895442746BD44E147BD4AE045BD45B366
:1002400041FFFDCF442745BD42E045BB0895F894EA
:02025000FFCFDE
:00000001FF
